:0400000000020000FA
:0400010001000000FA
:0400020000000000FA
:0400030000000000F9
:0400040004FFFF6E88
:0400050007FFFFFEF4
:0400060000400006B0
:0400070000000000F5
:04000800007EFF6E09
:0400090007FFFFFEF0
:04000A0004FFFF6E82
:04000B0007FFFFFEEE
:04000C0004FFFF6E80
:04000D0007FFFFFEEC
:04000E0004FFFF6E7E
:04000F0007FFFFFEEA
:040010000040200686
:0400110007FFFFFEE8
:0400120000400006A4
:0400130007FFFFFEE6
:0400140000400006A2
:0400150007FFFFFEE4
:0400160004FFFF6E76
:04001700014001069D
:0400180000FEFF6E79
:0400190007FFFFFEE0
:04001A0004FFFF6E72
:04001B0007FFFFFEDE
:04001C00004000069A
:04001D0000000000DF
:04001E0000000000DE
:04001F0000000000DD
:0400200000000008D4
:0400210001000000DA
:0400220000000000DA
:0400230000000000D9
:0400240004FFFF6E68
:040025000140000690
:0400260000000000D6
:0400270000000000D5
:040028000080000054
:0400290007FFFFFED0
:04002A0004FFFF6E62
:04002B0007FFFFFECE
:04002C0004FFFF6E60
:04002D000140000688
:04002E0000000000CE
:04002F0007FFFFFECA
:04003000007EFF66E9
:0400310006FFFFFEC9
:0400320004FFFF6E5A
:040033000140000682
:0400340000000000C8
:0400350000000000C7
:0400360000000000C6
:0400370007FFFFFEC2
:0400380000FEFF6E59
:04003900014000067C
:04003A0000000000C2
:04003B0000000000C1
:04003C0004FFFF6E50
:04003D000140000678
:04003E0000000000BE
:04003F0000000000BD
:0400400000000008B4
:0400410001000000BA
:0400420000000000BA
:0400430007FFFFFEB6
:0400440004FFFF6E48
:040045000140000670
:0400460004FFFF6E46
:0400470007FFFFFEB2
:0400480000C00006EE
:0400490007FFFFFEB0
:04004A0004FFFF6E42
:04004B00014000066A
:04004C0004FFFF6E40
:04004D0007FFFFFEAC
:04004E000040000668
:04004F0007FFFFFEAA
:04005000007EFF66C9
:040051000140000664
:0400520000000000AA
:0400530007FFFFFEA6
:040054000040000662
:0400550000000000A7
:0400560004FFFF6E36
:0400570007FFFFFEA2
:04005800004000065E
:0400590007FFFFFEA0
:04005A0004FFFF6E32
:04005B0007FFFFFE9E
:04005C0004FFFF6E30
:04005D000140000658
:04005E00000000009E
:04005F00000000009D
:04006000000000009C
:0400610007FFFFFE98
:0400620004FFFF6E2A
:0400630007FFFFFE96
:040064000040000652
:0400650007FFFFFE94
:040066000040000650
:0400670007FFFFFE92
:04006800004000064E
:040069000100000092
:04006A000000000092
:04006B0007FFFFFE8E
:04006C00004000064A
:04006D00000000008F
:04006E0004FFFF6E1E
:04006F000140010645
:04007000000000008C
:04007100010000008A
:04007200000000008A
:040073000000000089
:0400740004FFFF6E18
:040075000140000640
:0400760004FFFF6E16
:04007700014001063D
:0400780000FEFF6E19
:04007900014000063C
:04007A0004FFFF6E12
:04007B00014000063A
:04007C0004FFFF6E10
:04007D0007FFFFFE7C
:04007E0004FFFF6E0E
:04007F0007FFFFFE7A
:04008000007EDF6EB1
:0400810007FFFFFE78
:040082000040000634
:0400830007FFFFFE76
:0400840004FFFF6E08
:040085000140000630
:040086000000000076
:040087000000000075
:0400880000FEFF6E09
:04008900014000062C
:04008A0004FFFF6E02
:04008B0007FFFFFE6E
:04008C00004000062A
:04008D00000000006F
:04008E0004FFFF6EFE
:04008F000140010625
:04009000007EFF6E81
:040091000140000624
:0400920004FFFF6EFA
:0400930007FFFFFE66
:0400940004FFFF6EF8
:040095000140000620
:040096000000000066
:040097000000000065
:040098000000000064
:040099000100000062
:04009A0004FFFF6EF2
:04009B00014000061A
:04009C0004FFFF6EF0
:04009D0007FFFFFE5C
:04009E0004FFFF6EEE
:04009F000140010615
:0400A000000000005C
:0400A10007FFFFFE58
:0400A2000040000614
:0400A30007FFFFFE56
:0400A4000040000612
:0400A5000000000057
:0400A6000000000056
:0400A70007FFFFFE52
:0400A800004000060E
:0400A90007FFFFFE50
:0400AA00004000060C
:0400AB0007FFFFFE4E
:0400AC00004000060A
:0400AD00000000004F
:0400AE00000000004E
:0400AF0007FFFFFE4A
:0400B0000040000606
:0400B100000000004B
:0400B20004FFFF6EDA
:0400B3000140000602
:0400B4000000000048
:0400B50007FFFFFE44
:0400B6000040000600
:0400B70007FFFFFE42
:0400B80000400006FE
:0400B90007FFFFFE40
:0400BA0004FFFF6ED2
:0400BB0007FFFFFE3E
:0400BC0000400006FA
:0400BD00000000003F
:0400BE00000000003E
:0400BF00000000003D
:0400C000007EDF6E71
:0400C10001400006F4
:0400C200000000003A
:0400C3000000000039
:0400C40004FFFF6EC8
:0400C50007FFFFFE34
:0400C60004FFFF6EC6
:0400C70001400106ED
:0400C80000FEFF6EC9
:0400C90007FFFFFE30
:0400CA0004FFFF6EC2
:0400CB0007FFFFFE2E
:0400CC0004FFFF6EC0
:0400CD0001400006E8
:0400CE00000000002E
:0400CF0007FFFFFE2A
:0400D000007EFF6E41
:0400D10000400006E5
:0400D20004FFFF6EBA
:0400D30001400006E2
:0400D4000000000028
:0400D5000000000027
:0400D6000000000026
:0400D7000000000025
:0400D80000FEFF6EB9
:0400D90007FFFFFE20
:0400DA0004FFFF6EB2
:0400DB0007FFFFFE1E
:0400DC0000400006DA
:0400DD00000000001F
:0400DE00000000001E
:0400DF00000000001D
:0400E000007EDF6E51
:0400E10006FFFFFE19
:0400E20000400006D4
:0400E3000000000019
:0400E4000000000018
:0400E50007FFFFFE14
:0400E60000400006D0
:0400E7000000000015
:0400E80000FEFF6EA9
:0400E90007FFFFFE10
:0400EA0000400006CC
:0400EB0007FFFFFE0E
:0400EC0004FFFF6EA0
:0400ED0007FFFFFE0C
:0400EE0000400106C7
:0400EF00000000000D
:0400F000007EFF6E21
:0400F10007FFFFFE08
:0400F20000400006C4
:0400F3000000000009
:0400F40004FFFF6E98
:0400F50001400006C0
:0400F60004FFFF6E96
:0400F70007FFFFFE02
:0400F80000400006BE
:0400F90007FFFFFE00
:0400FA0004FFFF6E92
:0400FB0007FFFFFEFE
:0400FC0004FFFF6E90
:0400FD0007FFFFFEFC
:0400FE0000400006B8
:0400FF0007FFFFFEFA
:040100000076DB2882
:0401010007FFFFFEF7
:0401020000400006B3
:0401030007FFFFFEF5
:0401040000400006B1
:0401050007FFFFFEF3
:0401060004FFFF6E85
:0401070001400106AC
:0401080000FEFF6E88
:0401090007FFFFFEEF
:04010A0000400006AB
:04010B0007FFFFFEED
:04010C0000400006A9
:04010D0000000000EE
:04010E0004FFFF6E7D
:04010F0007FFFFFEE9
:0401100000FEFF6E80
:0401110007FFFFFEE7
:0401120000400006A3
:0401130007FFFFFEE5
:0401140004FFFF6E77
:04011500014000069F
:0401160000000000E5
:0401170007FFFFFEE1
:04011800004000069D
:0401190001000000E1
:04011A0000000000E1
:04011B0007FFFFFEDD
:04011C000040000699
:04011D0007FFFFFEDB
:04011E0004FFFF6E6D
:04011F0007FFFFFED9
:040120000040000E8D
:0401210001000000D9
:0401220004FFFF6E69
:0401230007FFFFFED5
:040124000040000691
:0401250000000000D6
:0401260004FFFF6E65
:0401270007FFFFFED1
:0401280000C000060D
:0401290001000000D1
:04012A0000000000D1
:04012B0000000000D0
:04012C0004FFFF6E5F
:04012D0007FFFFFECB
:04012E000040000687
:04012F0007FFFFFEC9
:04013000007EFF66E8
:0401310007FFFFFEC7
:0401320004FFFF6E59
:0401330007FFFFFEC5
:0401340004FFFF6E57
:04013500014000067F
:0401360000000000C5
:0401370000000000C4
:0401380000000000C3
:0401390001000000C1
:04013A0004FFFF6E51
:04013B0007FFFFFEBD
:04013C000040000679
:04013D0000000000BE
:04013E0000000000BD
:04013F0000000000BC
:04014000007EDF6EF0
:040141000140000673
:0401420000000000B9
:0401430007FFFFFEB5
:040144000040000671
:0401450007FFFFFEB3
:04014600004000066F
:0401470000000000B4
:040148000080000033
:0401490001000000B1
:04014A0000000000B1
:04014B0007FFFFFEAD
:04014C0004FFFF6E3F
:04014D000140000667
:04014E0000000000AD
:04014F0000000000AC
:04015000007EFF6EC0
:040151000140000663
:0401520004FFFF6E39
:0401530007FFFFFEA5
:040154000040000661
:0401550000000000A6
:0401560000000000A5
:0401570007FFFFFEA1
:04015800004000065D
:0401590007FFFFFE9F
:04015A0004FFFF6E31
:04015B0007FFFFFE9D
:04015C0004FFFF6E2F
:04015D0007FFFFFE9B
:04015E0004FFFF6E2D
:04015F0007FFFFFE99
:040160000040000E4D
:0401610006FFFFFE98
:0401620004FFFF6E29
:040163000140000651
:040164000000000097
:040165000000000096
:040166000000000095
:0401670007FFFFFE91
:0401680000FEFF6E28
:04016900004000064C
:04016A000000000091
:04016B000000000090
:04016C00000000008F
:04016D00000000008E
:04016E0004FFFF6E1D
:04016F0007FFFFFE89
:04017000007EFF66A8
:040171000140000643
:040172000000000089
:0401730007FFFFFE85
:0401740004FFFF6E17
:04017500014000063F
:040176000000000085
:0401770007FFFFFE81
:0401780000FEFF6E18
:04017900014000063B
:04017A0004FFFF6E11
:04017B0007FFFFFE7D
:04017C000040000639
:04017D00000000007E
:04017E0004FFFF6E0D
:04017F0007FFFFFE79
:04018000007EDF6EB0
:040181000140000633
:0401820004FFFF6E09
:040183000140000631
:0401840004FFFF6E07
:0401850007FFFFFE73
:04018600004000062F
:0401870007FFFFFE71
:0401880000FEFF6E08
:04018900004000062C
:04018A0004FFFF6E01
:04018B000140000629
:04018C00000000006F
:04018D00000000006E
:04018E0004FFFF6EFD
:04018F0007FFFFFE69
:04019000007EFF6E80
:040191000140000623
:040192000000000069
:040193000000000068
:0401940004FFFF6EF7
:0401950007FFFFFE63
:04019600004000061F
:0401970007FFFFFE61
:04019800004000061D
:040199000000000062
:04019A0004FFFF6EF1
:04019B000140000619
:04019C00000000005F
:04019D00000000005E
:04019E0004FFFF6EED
:04019F0007FFFFFE59
:0401A000007EDF6E90
:0401A10007FFFFFE57
:0401A2000040000613
:0401A3000000000058
:0401A40004FFFF6EE7
:0401A500014000060F
:0401A60004FFFF6EE5
:0401A70007FFFFFE51
:0401A80000C000068D
:0401A9000100000051
:0401AA0004FFFF6EE1
:0401AB0007FFFFFE4D
:0401AC0004FFFF6EDF
:0401AD000140000607
:0401AE0004FFFF6EDD
:0401AF0007FFFFFE49
:0401B000007EFF6E60
:0401B10007FFFFFE47
:0401B20004FFFF6ED9
:0401B30007FFFFFE45
:0401B40004FFFF6ED7
:0401B50007FFFFFE43
:0401B60000400006FF
:0401B7000000000044
:0401B80000FEFF6ED8
:0401B90001400006FB
:0401BA000000000041
:0401BB0007FFFFFE3D
:0401BC0004FFFF6ECF
:0401BD0001400006F7
:0401BE0004FFFF6ECD
:0401BF0007FFFFFE39
:0401C000007EDF6E70
:0401C10007FFFFFE37
:0401C20000400006F3
:0401C3000000000038
:0401C40004FFFF6EC7
:0401C50007FFFFFE33
:0401C60004FFFF6EC5
:0401C70007FFFFFE31
:0401C80000C000066D
:0401C90006FFFFFE30
:0401CA0000400006EB
:0401CB000000000030
:0401CC00000000002F
:0401CD0007FFFFFE2B
:0401CE0000400006E7
:0401CF0007FFFFFE29
:0401D000007EFF6E40
:0401D10006FFFFFE28
:0401D20004FFFF6EB9
:0401D30001400006E1
:0401D4000000000027
:0401D50007FFFFFE23
:0401D60004FFFF6EB5
:0401D70001400106DC
:0401D80000FEFF6EB8
:0401D90000400006DC
:0401DA0004FFFF6EB1
:0401DB0001400006D9
:0401DC00000000001F
:0401DD00000000001E
:0401DE00000000001D
:0401DF0007FFFFFE19
:0401E000007EDF6658
:0401E10000400006D4
:0401E2000000000019
:0401E3000000000018
:0401E4000000000017
:0401E50007FFFFFE13
:0401E60000400006CF
:0401E7000000000014
:0401E8000000000013
:0401E9000100000011
:0401EA0004FFFF6EA1
:0401EB0007FFFFFE0D
:0401EC0000400006C9
:0401ED0007FFFFFE0B
:0401EE0004FFFF6E9D
:0401EF0001400106C4
:0401F0000000000803
:0401F1000100000009
:0401F2000000000009
:0401F30007FFFFFE05
:0401F40000400006C1
:0401F5000000000006
:0401F60004FFFF6E95
:0401F70001400106BC
:0401F80000FEFF6E98
:0401F90001400006BB
:0401FA0004FFFF6E91
:0401FB0007FFFFFEFD
:0401FC0004FFFF6E8F
:0401FD0007FFFFFEFB
:0401FE0004FFFF6E8D
:0401FF0001400106B4
:0402000000000008F2
:0402010001000000F8
:0402020004FFFF6E88
:0402030007FFFFFEF4
:0402040000400006B0
:0402050007FFFFFEF2
:0402060000400006AE
:0402070000000000F3
:0402080000FEFF6E87
:0402090007FFFFFEEE
:04020A0000400006AA
:04020B0007FFFFFEEC
:04020C0004FFFF6E7E
:04020D0001400006A6
:04020E0000000000EC
:04020F0007FFFFFEE8
:04021000007EFF6607
:0402110001400006A2
:0402120004FFFF6E78
:0402130001400006A0
:0402140004FFFF6E76
:04021500014000069E
:0402160004FFFF6E74
:04021700014001069B
:0402180000000000E2
:0402190001000000E0
:04021A0000000000E0
:04021B0007FFFFFEDC
:04021C0004FFFF6E6E
:04021D000140000696
:04021E0000000000DC
:04021F0000000000DB
:04022000007EDF6E0F
:0402210006FFFFFED7
:0402220004FFFF6E68
:040223000140000690
:0402240000000000D6
:0402250007FFFFFED2
:0402260004FFFF6E64
:0402270007FFFFFED0
:0402280000FEFF6E67
:04022900014000068A
:04022A0004FFFF6E60
:04022B0007FFFFFECC
:04022C0004FFFF6E5E
:04022D0007FFFFFECA
:04022E0004FFFF6E5C
:04022F000140010683
:04023000007EFF6EDF
:0402310007FFFFFEC6
:0402320004FFFF6E58
:0402330007FFFFFEC4
:040234000040000680
:0402350000000000C5
:0402360004FFFF6E54
:0402370007FFFFFEC0
:04023800004000067C
:0402390000000000C1
:04023A0004FFFF6E50
:04023B000140000678
:04023C0000000000BE
:04023D0000000000BD
:04023E0000000000BC
:04023F0007FFFFFEB8
:040240000040000674
:0402410001000000B8
:0402420004FFFF6E48
:0402430007FFFFFEB4
:040244000040000670
:0402450007FFFFFEB2
:04024600004000066E
:0402470000000000B3
:04024800007EFF6EC7
:0402490007FFFFFEAE
:04024A00004000066A
:04024B0007FFFFFEAC
:04024C000040000668
:04024D0000000000AD
:04024E0000000000AC
:04024F0007FFFFFEA8
:040250000040000664
:0402510006FFFFFEA7
:0402520004FFFF6E38
:040253000140000660
:0402540000000000A6
:0402550000000000A5
:0402560000000000A4
:0402570000000000A3
:0402580000000000A2
:0402590001000000A0
:04025A0000000000A0
:04025B00000000009F
:04025C0004FFFF6E2E
:04025D000140000656
:04025E0004FFFF6E2C
:04025F000140010653
:04026000000000009A
:040261000100000098
:040262000000000098
:040263000000000097
:0402640004FFFF6E26
:04026500014000064E
:040266000000000094
:040267000000000093
:04026800007EFF6EA7
:0402690006FFFFFE8F
:04026A0004FFFF6E20
:04026B000140000648
:04026C00000000008E
:04026D0007FFFFFE8A
:04026E000040000646
:04026F0007FFFFFE88
:040270000040000644
:0402710006FFFFFE87
:040272000040000642
:040273000000000087
:040274000000000086
:0402750007FFFFFE82
:04027600004000063E
:040277000000000083
:0402780000FEFF6E17
:04027900014000063A
:04027A0004FFFF6E10
:04027B000140000638
:04027C0004FFFF6E0E
:04027D000140000636
:04027E00000000007C
:04027F00000000007B
:040280000000000872
:0402810007FFFFFE76
:040282000040000632
:0402830007FFFFFE74
:0402840004FFFF6E06
:04028500014000062E
:040286000000000074
:040287000000000073
:0402880000800000F2
:040289000100000070
:04028A000000000070
:04028B00000000006F
:04028C0004FFFF6EFE
:04028D0007FFFFFE6A
:04028E000040000626
:04028F0007FFFFFE68
:04029000007EFF6687
:040291000040000623
:0402920004FFFF6EF8
:040293000140000620
:040294000000000066
:040295000000000065
:0402960004FFFF6EF4
:0402970007FFFFFE60
:04029800004000061C
:0402990006FFFFFE5F
:04029A00004000061A
:04029B00000000005F
:04029C00000000005E
:04029D0007FFFFFE5A
:04029E000040000616
:04029F00000000005B
:0402A000007EDF6697
:0402A10006FFFFFE57
:0402A2000040000612
:0402A3000000000057
:0402A4000000000056
:0402A5000000000055
:0402A6000000000054
:0402A70007FFFFFE50
:0402A800007EFF6E67
:0402A90007FFFFFE4E
:0402AA0004FFFF6EE0
:0402AB0007FFFFFE4C
:0402AC0004FFFF6EDE
:0402AD0007FFFFFE4A
:0402AE0004FFFF6EDC
:0402AF0007FFFFFE48
:0402B0000040000EFC
:0402B1000100000048
:0402B2000000000048
:0402B3000000000047
:0402B40004FFFF6ED6
:0402B50001400006FE
:0402B6000000000044
:0402B70007FFFFFE40
:0402B80000400006FC
:0402B90007FFFFFE3E
:0402BA0000400006FA
:0402BB00000000003F
:0402BC0004FFFF6ECE
:0402BD0001400006F6
:0402BE0004FFFF6ECC
:0402BF0007FFFFFE38
:0402C000007EDF6677
:0402C10007FFFFFE36
:0402C20000400006F2
:0402C30007FFFFFE34
:0402C40004FFFF6EC6
:0402C50001400006EE
:0402C6000000000034
:0402C7000000000033
:0402C8000000000032
:0402C9000100000030
:0402CA0004FFFF6EC0
:0402CB0007FFFFFE2C
:0402CC0000400006E8
:0402CD00000000002D
:0402CE00000000002C
:0402CF0007FFFFFE28
:0402D0000040000EDC
:0402D1000100000028
:0402D2000000000028
:0402D30007FFFFFE24
:0402D40000400006E0
:0402D50007FFFFFE22
:0402D60004FFFF6EB4
:0402D70007FFFFFE20
:0402D80000FEFF6EB7
:0402D90006FFFFFE1F
:0402DA0000400006DA
:0402DB00000000001F
:0402DC00000000001E
:0402DD0007FFFFFE1A
:0402DE0004FFFF6EAC
:0402DF0001400106D3
:0402E0000000000812
:0402E10007FFFFFE16
:0402E20000400006D2
:0402E30007FFFFFE14
:0402E40004FFFF6EA6
:0402E50001400006CE
:0402E6000000000014
:0402E70007FFFFFE10
:0402E80000C000064C
:0402E90007FFFFFE0E
:0402EA0004FFFF6EA0
:0402EB0007FFFFFE0C
:0402EC0000400006C8
:0402ED0007FFFFFE0A
:0402EE0004FFFF6E9C
:0402EF0007FFFFFE08
:0402F000007EFF6627
:0402F10007FFFFFE06
:0402F20004FFFF6E98
:0402F30007FFFFFE04
:0402F40000400006C0
:0402F50007FFFFFE02
:0402F60004FFFF6E94
:0402F70007FFFFFE00
:0402F80000400006BC
:0402F9000100000000
:0402FA000000000000
:0402FB0007FFFFFEFC
:0402FC0000400006B8
:0402FD0000000000FD
:0402FE0000000000FC
:0402FF0000000000FB
:0403000000000000F9
:0403010007FFFFFEF5
:0403020000400006B1
:0403030000000000F6
:0403040004FFFF6E85
:0403050007FFFFFEF1
:0403060000400006AD
:0403070000000000F2
:0403080000000000F1
:0403090007FFFFFEED
:04030A0004FFFF6E7F
:04030B0007FFFFFEEB
:04030C0000400006A7
:04030D0000000000EC
:04030E0000000000EB
:04030F0000000000EA
:0403100000000000E9
:0403110006FFFFFEE6
:0403120004FFFF6E77
:04031300014000069F
:0403140000000000E5
:0403150000000000E4
:0403160000000000E3
:0403170007FFFFFEDF
:04031800004000069B
:0403190001000000DF
:04031A0000000000DF
:04031B0007FFFFFEDB
:04031C000040000697
:04031D0000000000DC
:04031E0004FFFF6E6B
:04031F0007FFFFFED7
:040320000040000E8B
:0403210001000000D7
:0403220004FFFF6E67
:04032300014000068F
:0403240004FFFF6E65
:0403250007FFFFFED1
:0403260004FFFF6E63
:04032700014001068A
:0403280000FEFF6E66
:0403290007FFFFFECD
:04032A000040000689
:04032B0007FFFFFECB
:04032C000040000687
:04032D0007FFFFFEC9
:04032E000040010684
:04032F0000000000CA
:04033000007EFF66E6
:040331000140000681
:0403320004FFFF6E57
:04033300014000067F
:0403340004FFFF6E55
:0403350007FFFFFEC1
:0403360004FFFF6E53
:04033700014001067A
:0403380000FEFF6E56
:040339000140000679
:04033A0004FFFF6E4F
:04033B000140000677
:04033C0004FFFF6E4D
:04033D000140000675
:04033E0000000000BB
:04033F0007FFFFFEB7
:040340000040000E6B
:0403410007FFFFFEB5
:0403420004FFFF6E47
:04034300014000066F
:0403440004FFFF6E45
:0403450007FFFFFEB1
:0403460004FFFF6E43
:0403470007FFFFFEAF
:0403480000FEFF6E46
:040349000140000669
:04034A0004FFFF6E3F
:04034B000140000667
:04034C0004FFFF6E3D
:04034D0007FFFFFEA9
:04034E000040010664
:04034F0000000000AA
:04035000007EFF66C6
:040351000140000661
:0403520000000000A7
:0403530007FFFFFEA3
:0403540004FFFF6E35
:0403550007FFFFFEA1
:04035600004000065D
:0403570007FFFFFE9F
:04035800004000065B
:04035900010000009F
:04035A0004FFFF6E2F
:04035B0007FFFFFE9B
:04035C0004FFFF6E2D
:04035D000140000655
:04035E0004FFFF6E2B
:04035F0007FFFFFE97
:040360000040000653
:0403610007FFFFFE95
:040362000040000651
:0403630007FFFFFE93
:0403640004FFFF6E25
:04036500014000064D
:040366000000000093
:040367000000000092
:040368000000000091
:04036900010000008F
:04036A0004FFFF6E1F
:04036B0007FFFFFE8B
:04036C000040000647
:04036D00000000008C
:04036E0004FFFF6E1B
:04036F000140010642
:040370000000000089
:040371000100000087
:040372000000000087
:040373000000000086
:0403740004FFFF6E15
:04037500014000063D
:040376000000000083
:0403770007FFFFFE7F
:04037800004000063B
:0403790007FFFFFE7D
:04037A000040000639
:04037B0007FFFFFE7B
:04037C0004FFFF6E0D
:04037D0007FFFFFE79
:04037E000040000635
:04037F0007FFFFFE77
:04038000007EDF66B6
:0403810006FFFFFE76
:0403820004FFFF6E07
:04038300014000062F
:040384000000000075
:0403850007FFFFFE71
:04038600004000062D
:040387000000000072
:04038800007EFF6E86
:040389000140000629
:04038A00000000006F
:04038B00000000006E
:04038C0004FFFF6EFD
:04038D0007FFFFFE69
:04038E000040000625
:04038F0007FFFFFE67
:040390000040000E1B
:0403910007FFFFFE65
:0403920004FFFF6EF7
:04039300014000061F
:0403940004FFFF6EF5
:0403950007FFFFFE61
:04039600004000061D
:040397000000000062
:040398000000000061
:04039900010000005F
:04039A0004FFFF6EEF
:04039B000140000617
:04039C0004FFFF6EED
:04039D0007FFFFFE59
:04039E000040000615
:04039F0007FFFFFE57
:0403A000007EDF6E8E
:0403A1000140000611
:0403A2000000000057
:0403A3000000000056
:0403A40004FFFF6EE5
:0403A500014000060D
:0403A6000000000053
:0403A7000000000052
:0403A80000FEFF6EE6
:0403A9000140000609
:0403AA0004FFFF6EDF
:0403AB0007FFFFFE4B
:0403AC000040000607
:0403AD0007FFFFFE49
:0403AE000040000605
:0403AF0007FFFFFE47
:0403B000007EFF6E5E
:0403B1000040000602
:0403B2000000000047
:0403B3000000000046
:0403B4000000000045
:0403B50007FFFFFE41
:0403B60004FFFF6ED3
:0403B70007FFFFFE3F
:0403B80000FEFF6ED6
:0403B90007FFFFFE3D
:0403BA0004FFFF6ECF
:0403BB0007FFFFFE3B
:0403BC0000400006F7
:0403BD0007FFFFFE39
:0403BE0004FFFF6ECB
:0403BF0001400106F2
:0403C0000000000831
:0403C1000100000037
:0403C20004FFFF6EC7
:0403C30007FFFFFE33
:0403C40000400006EF
:0403C50007FFFFFE31
:0403C60004FFFF6EC3
:0403C70007FFFFFE2F
:0403C80000C000066B
:0403C900010000002F
:0403CA00000000002F
:0403CB0007FFFFFE2B
:0403CC0004FFFF6EBD
:0403CD0007FFFFFE29
:0403CE0000400106E4
:0403CF00000000002A
:0403D000007EFF6646
:0403D10007FFFFFE25
:0403D20004FFFF6EB7
:0403D30001400006DF
:0403D40004FFFF6EB5
:0403D50007FFFFFE21
:0403D60000400006DD
:0403D70007FFFFFE1F
:0403D80000400006DB
:0403D900010000001F
:0403DA00000000001F
:0403DB0007FFFFFE1B
:0403DC0004FFFF6EAD
:0403DD0007FFFFFE19
:0403DE0000400006D5
:0403DF00000000001A
:0403E000007EDF6656
:0403E10007FFFFFE15
:0403E20004FFFF6EA7
:0403E30007FFFFFE13
:0403E40004FFFF6EA5
:0403E50001400006CD
:0403E6000000000013
:0403E70007FFFFFE0F
:0403E800007EFF6E26
:0403E90006FFFFFE0E
:0403EA0000400006C9
:0403EB00000000000E
:0403EC00000000000D
:0403ED0007FFFFFE09
:0403EE0000400006C5
:0403EF00000000000A
:0403F0000000000801
:0403F10007FFFFFE05
:0403F20000400006C1
:0403F30007FFFFFE03
:0403F40004FFFF6E95
:0403F50001400006BD
:0403F60004FFFF6E93
:0403F70001400106BA
:0403F80000FEFF6E96
:0403F90007FFFFFEFD
:0403FA0000400006B9
:0403FB0007FFFFFEFB
:0403FC0004FFFF6E8D
:0403FD0007FFFFFEF9
:0403FE0000400106B4
:0403FF0007FFFFFEF7
:040400000076DA2880
:0404010001400006B0
:0404020004FFFF6E86
:0404030001400006AE
:0404040004FFFF6E84
:0404050001400006AC
:0404060000000000F2
:0404070007FFFFFEEE
:0404080000FEFF6E85
:0404090006FFFFFEED
:04040A0000400006A8
:04040B0000000000ED
:04040C0000000000EC
:04040D0000000000EB
:04040E0000000000EA
:04040F0000000000E9
:04041000007EFF6605
:0404110001400006A0
:0404120004FFFF6E76
:04041300014000069E
:0404140004FFFF6E74
:0404150007FFFFFEE0
:0404160004FFFF6E72
:0404170007FFFFFEDE
:0404180000FEFF6E75
:040419000140000698
:04041A0004FFFF6E6E
:04041B0007FFFFFEDA
:04041C000040000696
:04041D0000000000DB
:04041E0000000000DA
:04041F0007FFFFFED6
:04042000007EDF6615
:0404210006FFFFFED5
:040422000040000690
:0404230000000000D5
:0404240000000000D4
:0404250007FFFFFED0
:0404260004FFFF6E62
:040427000140010689
:0404280000000000D0
:0404290000000000CF
:04042A0000000000CE
:04042B0000000000CD
:04042C0000000000CC
:04042D0000000000CB
:04042E0000000000CA
:04042F0007FFFFFEC6
:040430000040000E7A
:0404310007FFFFFEC4
:0404320004FFFF6E56
:0404330007FFFFFEC2
:04043400004000067E
:0404350000000000C3
:0404360004FFFF6E52
:040437000140010679
:0404380000FEFF6E55
:040439000140000678
:04043A0004FFFF6E4E
:04043B000140000676
:04043C0004FFFF6E4C
:04043D000140000674
:04043E0000000000BA
:04043F0000000000B9
:0404400000000000B8
:0404410000000000B7
:0404420004FFFF6E46
:04044300014000066E
:0404440000000000B4
:0404450007FFFFFEB0
:0404460004FFFF6E42
:040447000140010669
:04044800007EFF6EC5
:0404490007FFFFFEAC
:04044A0004FFFF6E3E
:04044B0007FFFFFEAA
:04044C000040000666
:04044D0000000000AB
:04044E0000000000AA
:04044F0000000000A9
:0404500000000000A8
:0404510001000000A6
:0404520004FFFF6E36
:0404530007FFFFFEA2
:0404540004FFFF6E34
:0404550007FFFFFEA0
:04045600004000065C
:0404570000000000A1
:0404580000FEFF6E35
:040459000140000658
:04045A0004FFFF6E2E
:04045B0007FFFFFE9A
:04045C0004FFFF6E2C
:04045D0007FFFFFE98
:04045E000040000654
:04045F0007FFFFFE96
:04046000007EDF66D5
:040461000040000651
:0404620004FFFF6E26
:04046300014000064E
:040464000000000094
:040465000000000093
:040466000000000092
:0404670007FFFFFE8E
:04046800004000064A
:04046900000000008F
:04046A0004FFFF6E1E
:04046B000140000646
:04046C00000000008C
:04046D0007FFFFFE88
:04046E0004FFFF6E1A
:04046F0007FFFFFE86
:040470000040000E3A
:0404710006FFFFFE85
:040472000040000640
:040473000000000085
:040474000000000084
:0404750007FFFFFE80
:0404760004FFFF6E12
:0404770007FFFFFE7E
:0404780000FEFF6E15
:0404790007FFFFFE7C
:04047A000040000638
:04047B0007FFFFFE7A
:04047C0004FFFF6E0C
:04047D0007FFFFFE78
:04047E0004FFFF6E0A
:04047F000140010631
:040480000000000870
:0404810007FFFFFE74
:0404820004FFFF6E06
:04048300014000062E
:0404840004FFFF6E04
:0404850007FFFFFE70
:0404860004FFFF6E02
:0404870007FFFFFE6E
:0404880000FEFF6E05
:0404890007FFFFFE6C
:04048A000040000628
:04048B0007FFFFFE6A
:04048C0004FFFF6EFC
:04048D0007FFFFFE68
:04048E0004FFFF6EFA
:04048F0007FFFFFE66
:04049000007EFF6685
:0404910007FFFFFE64
:040492000040000620
:0404930007FFFFFE62
:0404940004FFFF6EF4
:04049500014000061C
:0404960004FFFF6EF2
:040497000140010619
:040498000000000060
:04049900010000005E
:04049A00000000005E
:04049B0007FFFFFE5A
:04049C000040000616
:04049D00000000005B
:04049E0004FFFF6EEA
:04049F0007FFFFFE56
:0404A000007EDF6695
:0404A10006FFFFFE55
:0404A20004FFFF6EE6
:0404A300014000060E
:0404A4000000000054
:0404A50007FFFFFE50
:0404A600004000060C
:0404A7000000000051
:0404A8000000000050
:0404A90006FFFFFE4D
:0404AA0004FFFF6EDE
:0404AB000140000606
:0404AC00000000004C
:0404AD00000000004B
:0404AE00000000004A
:0404AF000000000049
:0404B0000000000840
:0404B10007FFFFFE44
:0404B2000040000600
:0404B30007FFFFFE42
:0404B40000400006FE
:0404B50007FFFFFE40
:0404B60000400006FC
:0404B70007FFFFFE3E
:0404B80000FEFF6ED5
:0404B90007FFFFFE3C
:0404BA0004FFFF6ECE
:0404BB0007FFFFFE3A
:0404BC0004FFFF6ECC
:0404BD0007FFFFFE38
:0404BE0000400006F4
:0404BF000000000039
:0404C000007EDF6675
:0404C10007FFFFFE34
:0404C20000400006F0
:0404C3000000000035
:0404C40004FFFF6EC4
:0404C50007FFFFFE30
:0404C60004FFFF6EC2
:0404C70001400106E9
:0404C8000000000030
:0404C90006FFFFFE2D
:0404CA0004FFFF6EBE
:0404CB0001400006E6
:0404CC00000000002C
:0404CD00000000002B
:0404CE00000000002A
:0404CF000000000029
:0404D0000000000820
:0404D10007FFFFFE24
:0404D20004FFFF6EB6
:0404D30007FFFFFE22
:0404D40004FFFF6EB4
:0404D50001400006DC
:0404D60004FFFF6EB2
:0404D70001400106D9
:0404D80000FEFF6EB5
:0404D90007FFFFFE1C
:0404DA0004FFFF6EAE
:0404DB0007FFFFFE1A
:0404DC0004FFFF6EAC
:0404DD0001400006D4
:0404DE00000000001A
:0404DF000000000019
:0404E000007EDF6E4D
:0404E10007FFFFFE14
:0404E20004FFFF6EA6
:0404E30007FFFFFE12
:0404E40000400006CE
:0404E50007FFFFFE10
:0404E60004FFFF6EA2
:0404E70001400106C9
:0404E80000FEFF6EA5
:0404E90001400006C8
:0404EA00000000000E
:0404EB0007FFFFFE0A
:0404EC0004FFFF6E9C
:0404ED0007FFFFFE08
:0404EE0000400106C3
:0404EF0007FFFFFE06
:0404F000007EFF6E1D
:0404F10007FFFFFE04
:0404F20004FFFF6E96
:0404F30001400006BE
:0404F40004FFFF6E94
:0404F50001400006BC
:0404F6000000000002
:0404F7000000000001
:0404F80000FEFF6E95
:0404F90000400006B9
:0404FA0004FFFF6E8E
:0404FB0001400006B6
:0404FC0000000000FC
:0404FD0007FFFFFEF8
:0404FE0004FFFF6E8A
:0404FF0007FFFFFEF6
:0405000000400008AF
:0405010000000000F6
:0405020004FFFF6E85
:0405030001400006AD
:0405040000000000F3
:0405050007FFFFFEEF
:0405060000400006AB
:0405070007FFFFFEED
:0405080000C0000629
:0405090000000000EE
:04050A0000000000ED
:04050B0000000000EC
:04050C0000000000EB
:04050D0000000000EA
:04050E0000000000E9
:04050F0000000000E8
:04051000007EFF6604
:0405110007FFFFFEE3
:04051200004000069F
:0405130007FFFFFEE1
:04051400004000069D
:0405150007FFFFFEDF
:04051600004000069B
:0405170000000000E0
:0405180000FEFF6E74
:040519000140000697
:04051A0004FFFF6E6D
:04051B0007FFFFFED9
:04051C0004FFFF6E6B
:04051D0007FFFFFED7
:04051E000040010692
:04051F0007FFFFFED5
:040520000040000691
:0405210001000000D5
:0405220000000000D5
:0405230007FFFFFED1
:04052400004000068D
:0405250007FFFFFECF
:0405260004FFFF6E61
:0405270007FFFFFECD
:04052800007EFF6EE4
:040529000140000687
:04052A0000000000CD
:04052B0000000000CC
:04052C0004FFFF6E5B
:04052D000140000683
:04052E0004FFFF6E59
:04052F000140000681
:0405300000000000C7
:0405310007FFFFFEC3
:0405320004FFFF6E55
:0405330007FFFFFEC1
:0405340004FFFF6E53
:0405350007FFFFFEBF
:0405360004FFFF6E51
:0405370007FFFFFEBD
:040538000040000679
:0405390007FFFFFEBB
:04053A0004FFFF6E4D
:04053B0007FFFFFEB9
:04053C0004FFFF6E4B
:04053D0007FFFFFEB7
:04053E000040000673
:04053F0007FFFFFEB5
:040540000040000671
:0405410000000000B6
:0405420000000000B5
:0405430000000000B4
:0405440000000000B3
:0405450000000000B2
:0405460000000000B1
:0405470007FFFFFEAD
:040548000040000669
:0405490006FFFFFEAC
:04054A0004FFFF6E3D
:04054B000140000665
:04054C0000000000AB
:04054D0000000000AA
:04054E0000000000A9
:04054F0000000000A8
:0405500000000000A7
:0405510006FFFFFEA4
:04055200004000065F
:0405530000000000A4
:0405540000000000A3
:0405550007FFFFFE9F
:0405560004FFFF6E31
:040557000140010658
:04055800000000009F
:04055900000000009E
:04055A00000000009D
:04055B00000000009C
:04055C00000000009B
:04055D0007FFFFFE97
:04055E000040000653
:04055F000000000098
:040560000000000097
:0405610007FFFFFE93
:04056200004000064F
:040563000000000094
:0405640004FFFF6E23
:04056500014000064B
:040566000000000091
:0405670007FFFFFE8D
:040568000040000649
:0405690007FFFFFE8B
:04056A0004FFFF6E1D
:04056B000140000645
:04056C0004FFFF6E1B
:04056D000140000643
:04056E000000000089
:04056F0007FFFFFE85
:040570000040000641
:0405710007FFFFFE83
:04057200004000063F
:0405730007FFFFFE81
:04057400004000063D
:0405750007FFFFFE7F
:0405760004FFFF6E11
:040577000140010638
:04057800000000007F
:0405790007FFFFFE7B
:04057A0004FFFF6E0D
:04057B0007FFFFFE79
:04057C0004FFFF6E0B
:04057D0007FFFFFE77
:04057E0004FFFF6E09
:04057F000140010630
:04058000007EDF66B4
:0405810006FFFFFE74
:04058200004000062F
:040583000000000074
:040584000000000073
:040585000000000072
:0405860004FFFF6E01
:040587000140010628
:04058800000000006F
:0405890006FFFFFE6C
:04058A0004FFFF6EFD
:04058B000140000625
:04058C00000000006B
:04058D0007FFFFFE67
:04058E000040000623
:04058F000000000068
:04059000000000085F
:0405910007FFFFFE63
:0405920004FFFF6EF5
:0405930007FFFFFE61
:04059400004000061D
:0405950007FFFFFE5F
:04059600004000061B
:0405970007FFFFFE5D
:040598000040000619
:0405990006FFFFFE5C
:04059A0004FFFF6EED
:04059B000140000615
:04059C00000000005B
:04059D00000000005A
:04059E000000000059
:04059F000000000058
:0405A000007EDF6E8C
:0405A10006FFFFFE54
:0405A20004FFFF6EE5
:0405A300014000060D
:0405A4000000000053
:0405A50007FFFFFE4F
:0405A60004FFFF6EE1
:0405A7000140010608
:0405A80000FEFF6EE4
:0405A9000140000607
:0405AA0004FFFF6EDD
:0405AB0007FFFFFE49
:0405AC0004FFFF6EDB
:0405AD0007FFFFFE47
:0405AE0004FFFF6ED9
:0405AF000140010600
:0405B000007EFF6E5C
:0405B10007FFFFFE43
:0405B20000400006FF
:0405B30007FFFFFE41
:0405B40000400006FD
:0405B50007FFFFFE3F
:0405B60004FFFF6ED1
:0405B70007FFFFFE3D
:0405B80000400006F9
:0405B90007FFFFFE3B
:0405BA0004FFFF6ECD
:0405BB0001400006F5
:0405BC0004FFFF6ECB
:0405BD0001400006F3
:0405BE0004FFFF6EC9
:0405BF0001400106F0
:0405C000000000082F
:0405C10007FFFFFE33
:0405C20000400006EF
:0405C30007FFFFFE31
:0405C40004FFFF6EC3
:0405C50001400006EB
:0405C6000000000031
:0405C7000000000030
:0405C80000800000AF
:0405C900010000002D
:0405CA00000000002D
:0405CB0007FFFFFE29
:0405CC0000400006E5
:0405CD00000000002A
:0405CE000000000029
:0405CF000000000028
:0405D000007EFF6644
:0405D10007FFFFFE23
:0405D20000400006DF
:0405D30007FFFFFE21
:0405D40004FFFF6EB3
:0405D50001400006DB
:0405D60004FFFF6EB1
:0405D70001400106D8
:0405D800000000001F
:0405D90006FFFFFE1C
:0405DA0000400006D7
:0405DB00000000001C
:0405DC00000000001B
:0405DD0007FFFFFE17
:0405DE0004FFFF6EA9
:0405DF0007FFFFFE15
:0405E000007EDF6654
:0405E10007FFFFFE13
:0405E20004FFFF6EA5
:0405E30001400006CD
:0405E40004FFFF6EA3
:0405E50001400006CB
:0405E60004FFFF6EA1
:0405E70007FFFFFE0D
:0405E800007EFF6E24
:0405E90001400006C7
:0405EA0004FFFF6E9D
:0405EB0007FFFFFE09
:0405EC0000400006C5
:0405ED00000000000A
:0405EE0004FFFF6E99
:0405EF0007FFFFFE05
:0405F0000040000EB9
:0405F10007FFFFFE03
:0405F20000400006BF
:0405F3000000000004
:0405F40004FFFF6E93
:0405F50007FFFFFEFF
:0405F60004FFFF6E91
:0405F70001400106B8
:0405F80000FEFF6E94
:0405F90006FFFFFEFC
:0405FA0000400006B7
:0405FB0000000000FC
:0405FC0000000000FB
:0405FD0007FFFFFEF7
:0405FE0000400106B2
:0405FF0007FFFFFEF5
:0406000000400000B6
:0406010001000000F4
:0406020000000000F4
:0406030007FFFFFEF0
:0406040000400006AC
:0406050007FFFFFEEE
:0406060004FFFF6E80
:0406070007FFFFFEEC
:0406080000400006A8
:0406090001000000EC
:04060A0004FFFF6E7C
:04060B0001400006A4
:04060C0004FFFF6E7A
:04060D0001400006A2
:04060E0000000000E8
:04060F0007FFFFFEE4
:0406100000400006A0
:0406110007FFFFFEE2
:04061200004000069E
:0406130007FFFFFEE0
:0406140004FFFF6E72
:0406150007FFFFFEDE
:04061600004000069A
:0406170000000000DF
:0406180000000000DE
:0406190007FFFFFEDA
:04061A000040000696
:04061B0007FFFFFED8
:04061C0004FFFF6E6A
:04061D0007FFFFFED6
:04061E0004FFFF6E68
:04061F000140000690
:04062000007EDF6613
:04062100014000068E
:0406220004FFFF6E64
:0406230007FFFFFED0
:0406240004FFFF6E62
:0406250007FFFFFECE
:04062600004000068A
:0406270000000000CF
:04062800007EFF6EE3
:0406290007FFFFFECA
:04062A0004FFFF6E5C
:04062B000140000684
:04062C0004FFFF6E5A
:04062D000140000682
:04062E0000000000C8
:04062F0007FFFFFEC4
:040630000040000E78
:0406310001000000C4
:0406320000000000C4
:0406330007FFFFFEC0
:04063400004000067C
:0406350007FFFFFEBE
:0406360004FFFF6E50
:0406370007FFFFFEBC
:040638000040000678
:0406390001000000BC
:04063A0000000000BC
:04063B0007FFFFFEB8
:04063C0004FFFF6E4A
:04063D000140000672
:04063E0000000000B8
:04063F0000000000B7
:04064000007EDF6EEB
:04064100004000066F
:0406420000000000B4
:0406430000000000B3
:0406440000000000B2
:0406450007FFFFFEAE
:04064600004000066A
:0406470000000000AF
:04064800008000002E
:0406490006FFFFFEAB
:04064A0004FFFF6E3C
:04064B000140000664
:04064C0000000000AA
:04064D0000000000A9
:04064E0004FFFF6E38
:04064F0007FFFFFEA4
:04065000007EFF6EBB
:04065100014000065E
:0406520004FFFF6E34
:0406530007FFFFFEA0
:0406540004FFFF6E32
:04065500014000065A
:0406560000000000A0
:04065700000000009F
:0406580000FEFF6E33
:040659000140000656
:04065A00000000009C
:04065B0007FFFFFE98
:04065C0004FFFF6E2A
:04065D0007FFFFFE96
:04065E0004FFFF6E28
:04065F00014001064F
:04066000000000088E
:0406610006FFFFFE93
:04066200004000064E
:040663000000000093
:040664000000000092
:0406650007FFFFFE8E
:0406660004FFFF6E20
:0406670007FFFFFE8C
:0406680000C00006C8
:04066900000000008D
:04066A0004FFFF6E1C
:04066B000140000644
:04066C00000000008A
:04066D0007FFFFFE86
:04066E000040000642
:04066F0007FFFFFE84
:04067000007EFF66A3
:04067100014000063E
:040672000000000084
:0406730007FFFFFE80
:04067400004000063C
:040675000000000081
:0406760004FFFF6E10
:0406770007FFFFFE7C
:040678000040000638
:04067900000000007D
:04067A0004FFFF6E0C
:04067B000140000634
:04067C00000000007A
:04067D0007FFFFFE76
:04067E0004FFFF6E08
:04067F0007FFFFFE74
:040680000040000E28
:0406810007FFFFFE72
:04068200004000062E
:0406830007FFFFFE70
:04068400004000062C
:040685000000000071
:0406860004FFFF6E00
:0406870007FFFFFE6C
:0406880000FEFF6E03
:040689000140000626
:04068A0004FFFF6EFC
:04068B000140000624
:04068C0004FFFF6EFA
:04068D000140000622
:04068E000000000068
:04068F000000000067
:04069000007EFF6683
:04069100014000061E
:040692000000000064
:0406930007FFFFFE60
:0406940004FFFF6EF2
:04069500014000061A
:0406960004FFFF6EF0
:040697000140010617
:04069800000000005E
:04069900010000005C
:04069A00000000005C
:04069B0007FFFFFE58
:04069C0004FFFF6EEA
:04069D0007FFFFFE56
:04069E0004FFFF6EE8
:04069F00014001060F
:0406A000007EDF6E8B
:0406A10007FFFFFE52
:0406A200004000060E
:0406A30007FFFFFE50
:0406A400004000060C
:0406A5000000000051
:0406A60004FFFF6EE0
:0406A70007FFFFFE4C
:0406A80000C0000688
:0406A90007FFFFFE4A
:0406AA000040000606
:0406AB00000000004B
:0406AC0004FFFF6EDA
:0406AD000140000602
:0406AE000000000048
:0406AF0007FFFFFE44
:0406B000007EFF6E5B
:0406B10000400006FF
:0406B20004FFFF6ED4
:0406B30001400006FC
:0406B4000000000042
:0406B50007FFFFFE3E
:0406B60000400006FA
:0406B70007FFFFFE3C
:0406B80000400006F8
:0406B90007FFFFFE3A
:0406BA0000400006F6
:0406BB0007FFFFFE38
:0406BC0000400006F4
:0406BD000000000039
:0406BE000000000038
:0406BF000000000037
:0406C0000000000036
:0406C1000100000034
:0406C2000000000034
:0406C3000000000033
:0406C40004FFFF6EC2
:0406C50007FFFFFE2E
:0406C60004FFFF6EC0
:0406C70001400106E7
:0406C800007EFF6E43
:0406C90007FFFFFE2A
:0406CA0004FFFF6EBC
:0406CB0001400006E4
:0406CC0004FFFF6EBA
:0406CD0007FFFFFE26
:0406CE0004FFFF6EB8
:0406CF0007FFFFFE24
:0406D00000400006E0
:0406D10007FFFFFE22
:0406D20004FFFF6EB4
:0406D30007FFFFFE20
:0406D40004FFFF6EB2
:0406D50001400006DA
:0406D6000000000020
:0406D700000000001F
:0406D80000FEFF6EB3
:0406D90006FFFFFE1B
:0406DA0000400006D6
:0406DB00000000001B
:0406DC00000000001A
:0406DD0007FFFFFE16
:0406DE0004FFFF6EA8
:0406DF0001400106CF
:0406E000007EDF6E4B
:0406E10001400006CE
:0406E20004FFFF6EA4
:0406E30007FFFFFE10
:0406E40004FFFF6EA2
:0406E50007FFFFFE0E
:0406E60000400006CA
:0406E70007FFFFFE0C
:0406E80000C0000648
:0406E900010000000C
:0406EA0004FFFF6E9C
:0406EB0001400006C4
:0406EC0004FFFF6E9A
:0406ED0007FFFFFE06
:0406EE0004FFFF6E98
:0406EF0007FFFFFE04
:0406F000007EFF6E1B
:0406F10000400006BF
:0406F20004FFFF6E94
:0406F30001400006BC
:0406F4000000000002
:0406F50007FFFFFEFE
:0406F60004FFFF6E90
:0406F70007FFFFFEFC
:0406F80000FEFF6E93
:0406F90007FFFFFEFA
:0406FA0000400006B6
:0406FB0007FFFFFEF8
:0406FC0000400006B4
:0406FD0000000000F9
:0406FE0000000000F8
:0406FF0007FFFFFEF4
:0407000000400000B5
:0407010000000000F4
:0407020004FFFF6E83
:0407030001400006AB
:0407040000000000F1
:0407050007FFFFFEED
:0407060004FFFF6E7F
:0407070001400106A6
:04070800007EFF6E02
:0407090001400006A5
:04070A0004FFFF6E7B
:04070B0007FFFFFEE7
:04070C0004FFFF6E79
:04070D0007FFFFFEE5
:04070E0004FFFF6E77
:04070F0007FFFFFEE3
:04071000004000069F
:0407110007FFFFFEE1
:0407120004FFFF6E73
:0407130007FFFFFEDF
:0407140004FFFF6E71
:0407150007FFFFFEDD
:040716000040000699
:0407170007FFFFFEDB
:040718000040000697
:0407190006FFFFFEDA
:04071A000040000695
:04071B0000000000DA
:04071C0000000000D9
:04071D0007FFFFFED5
:04071E0004FFFF6E67
:04071F00014000068F
:04072000007EDF6E0A
:0407210007FFFFFED1
:0407220004FFFF6E63
:04072300014000068B
:0407240004FFFF6E61
:040725000140000689
:0407260004FFFF6E5F
:0407270007FFFFFECB
:0407280000FEFF6E62
:040729000140000685
:04072A0000000000CB
:04072B0007FFFFFEC7
:04072C0004FFFF6E59
:04072D0007FFFFFEC5
:04072E000040000681
:04072F0000000000C6
:04073000007EFF6EDA
:0407310007FFFFFEC1
:04073200004000067D
:0407330000000000C2
:0407340004FFFF6E51
:0407350007FFFFFEBD
:040736000040000679
:0407370000000000BE
:0407380000000000BD
:0407390001000000BB
:04073A0000000000BB
:04073B0007FFFFFEB7
:04073C0004FFFF6E49
:04073D0007FFFFFEB5
:04073E0004FFFF6E47
:04073F0007FFFFFEB3
:04074000004000066F
:0407410001000000B3
:0407420004FFFF6E43
:0407430007FFFFFEAF
:04074400004000066B
:0407450000000000B0
:0407460004FFFF6E3F
:040747000140010666
:04074800007EFF6EC2
:040749000140000665
:04074A0004FFFF6E3B
:04074B000140000663
:04074C0004FFFF6E39
:04074D0007FFFFFEA5
:04074E0004FFFF6E37
:04074F0007FFFFFEA3
:04075000004000065F
:0407510001000000A3
:0407520000000000A3
:0407530000000000A2
:0407540004FFFF6E31
:040755000140000659
:04075600000000009F
:0407570007FFFFFE9B
:0407580000FEFF6E32
:040759000140000655
:04075A00000000009B
:04075B00000000009A
:04075C0004FFFF6E29
:04075D0007FFFFFE95
:04075E0004FFFF6E27
:04075F00014000064F
:04076000007EDF66D2
:04076100014000064D
:040762000000000093
:0407630007FFFFFE8F
:0407640004FFFF6E21
:040765000140000649
:0407660004FFFF6E1F
:040767000140010646
:04076800007EFF6EA2
:040769000140000645
:04076A00000000008B
:04076B0007FFFFFE87
:04076C0004FFFF6E19
:04076D0007FFFFFE85
:04076E0004FFFF6E17
:04076F00014001063E
:04077000000000087D
:0407710006FFFFFE82
:0407720004FFFF6E13
:04077300014000063B
:040774000000000081
:0407750007FFFFFE7D
:0407760004FFFF6E0F
:040777000140010636
:0407780000FEFF6E12
:0407790007FFFFFE79
:04077A000040000635
:04077B00000000007A
:04077C0004FFFF6E09
:04077D0007FFFFFE75
:04077E0004FFFF6E07
:04077F0007FFFFFE73
:040780000040000E27
:0407810007FFFFFE71
:0407820004FFFF6E03
:0407830007FFFFFE6F
:0407840004FFFF6E01
:0407850007FFFFFE6D
:040786000040000629
:0407870007FFFFFE6B
:0407880000C00006A7
:04078900000000006C
:04078A0004FFFF6EFB
:04078B000140000623
:04078C000000000069
:04078D000000000068
:04078E0004FFFF6EF7
:04078F0007FFFFFE63
:04079000007EFF6682
:04079100004000061E
:040792000000000063
:040793000000000062
:040794000000000061
:0407950007FFFFFE5D
:0407960004FFFF6EEF
:040797000140010616
:04079800000000005D
:0407990007FFFFFE59
:04079A0004FFFF6EEB
:04079B000140000613
:04079C0004FFFF6EE9
:04079D000140000611
:04079E0004FFFF6EE7
:04079F0007FFFFFE53
:0407A000004000060F
:0407A10006FFFFFE52
:0407A20004FFFF6EE3
:0407A300014000060B
:0407A4000000000051
:0407A50007FFFFFE4D
:0407A60004FFFF6EDF
:0407A7000140010606
:0407A800000000004D
:0407A90007FFFFFE49
:0407AA0004FFFF6EDB
:0407AB000140000603
:0407AC0004FFFF6ED9
:0407AD000140000601
:0407AE0004FFFF6ED7
:0407AF0001400106FE
:0407B0000000000045
:0407B10007FFFFFE41
:0407B20004FFFF6ED3
:0407B30007FFFFFE3F
:0407B40000400006FB
:0407B5000000000040
:0407B600000000003F
:0407B700000000003E
:0407B800000000003D
:0407B900010000003B
:0407BA00000000003B
:0407BB00000000003A
:0407BC0004FFFF6EC9
:0407BD0001400006F1
:0407BE0004FFFF6EC7
:0407BF0001400106EE
:0407C000007EDF6672
:0407C10007FFFFFE31
:0407C20004FFFF6EC3
:0407C30007FFFFFE2F
:0407C40000400006EB
:0407C50007FFFFFE2D
:0407C60004FFFF6EBF
:0407C70001400106E6
:0407C800007EFF6E42
:0407C90001400006E5
:0407CA0004FFFF6EBB
:0407CB0001400006E3
:0407CC0004FFFF6EB9
:0407CD0001400006E1
:0407CE0004FFFF6EB7
:0407CF0001400106DE
:0407D000000000081D
:0407D1000100000023
:0407D20004FFFF6EB3
:0407D30007FFFFFE1F
:0407D40000400006DB
:0407D5000000000020
:0407D600000000001F
:0407D700000000001E
:0407D800000000001D
:0407D900010000001B
:0407DA0004FFFF6EAB
:0407DB0007FFFFFE17
:0407DC0004FFFF6EA9
:0407DD0007FFFFFE15
:0407DE0004FFFF6EA7
:0407DF0007FFFFFE13
:0407E000007EDF6E4A
:0407E10000400006CE
:0407E2000000000013
:0407E3000000000012
:0407E4000000000011
:0407E5000000000010
:0407E600000000000F
:0407E70007FFFFFE0B
:0407E80000C0000647
:0407E90007FFFFFE09
:0407EA0004FFFF6E9B
:0407EB0007FFFFFE07
:0407EC0000400006C3
:0407ED000000000008
:0407EE000000000007
:0407EF0007FFFFFE03
:0407F000007EFF6E1A
:0407F10001400006BD
:0407F2000000000003
:0407F30007FFFFFEFF
:0407F40004FFFF6E91
:0407F50001400006B9
:0407F60004FFFF6E8F
:0407F70001400106B6
:0407F80000000000FD
:0407F90007FFFFFEF9
:0407FA0004FFFF6E8B
:0407FB0001400006B3
:0407FC0004FFFF6E89
:0407FD0001400006B1
:0407FE0004FFFF6E87
:0407FF0001400106AE
:0408000000000008EC
:0408010000000000F3
:0408020004FFFF6E82
:0408030001400006AA
:0408040000000000F0
:0408050000000000EF
:0408060000000000EE
:0408070000000000ED
:0408080000FEFF6E81
:0408090000400006A5
:04080A0000000000EA
:04080B0000000000E9
:04080C0000000000E8
:04080D0007FFFFFEE4
:04080E0000400006A0
:04080F0000000000E5
:04081000007EFF6601
:04081100014000069C
:0408120004FFFF6E72
:0408130007FFFFFEDE
:0408140004FFFF6E70
:0408150007FFFFFEDC
:040816000040000698
:0408170000000000DD
:0408180000000000DC
:0408190001000000DA
:04081A0000000000DA
:04081B0007FFFFFED6
:04081C0004FFFF6E68
:04081D0007FFFFFED4
:04081E0004FFFF6E66
:04081F0007FFFFFED2
:04082000007EDF6E09
:0408210007FFFFFED0
:04082200004000068C
:0408230007FFFFFECE
:04082400004000068A
:0408250000000000CF
:0408260000000000CE
:0408270007FFFFFECA
:0408280000C0000606
:0408290006FFFFFEC9
:04082A0004FFFF6E5A
:04082B000140000682
:04082C0000000000C8
:04082D0000000000C7
:04082E0004FFFF6E56
:04082F00014001067D
:04083000007EFF6ED9
:0408310007FFFFFEC0
:0408320004FFFF6E52
:0408330007FFFFFEBE
:0408340004FFFF6E50
:0408350007FFFFFEBC
:040836000040000678
:0408370007FFFFFEBA
:040838000040000676
:0408390007FFFFFEB8
:04083A000040000674
:04083B0007FFFFFEB6
:04083C0004FFFF6E48
:04083D0007FFFFFEB4
:04083E000040000670
:04083F0000000000B5
:04084000007EDF6EE9
:0408410007FFFFFEB0
:0408420004FFFF6E42
:04084300014000066A
:0408440004FFFF6E40
:040845000140000668
:0408460004FFFF6E3E
:040847000140010665
:0408480000FEFF6E41
:040849000140000664
:04084A0000000000AA
:04084B0000000000A9
:04084C0004FFFF6E38
:04084D0007FFFFFEA4
:04084E000040000660
:04084F0007FFFFFEA2
:04085000007EFF6EB9
:0408510007FFFFFEA0
:0408520004FFFF6E32
:0408530007FFFFFE9E
:04085400004000065A
:0408550007FFFFFE9C
:0408560004FFFF6E2E
:0408570007FFFFFE9A
:040858000040000656
:0408590006FFFFFE99
:04085A0004FFFF6E2A
:04085B000140000652
:04085C000000000098
:04085D000000000097
:04085E000000000096
:04085F0007FFFFFE92
:04086000007EDF66D1
:04086100004000064D
:040862000000000092
:040863000000000091
:040864000000000090
:04086500000000008F
:0408660004FFFF6E1E
:0408670007FFFFFE8A
:04086800007EFF6EA1
:040869000140000644
:04086A00000000008A
:04086B000000000089
:04086C0004FFFF6E18
:04086D000140000640
:04086E000000000086
:04086F0007FFFFFE82
:040870000040000E36
:0408710006FFFFFE81
:0408720004FFFF6E12
:04087300014000063A
:040874000000000080
:0408750007FFFFFE7C
:040876000040000638
:0408770007FFFFFE7A
:040878000040000636
:0408790007FFFFFE78
:04087A0004FFFF6E0A
:04087B0007FFFFFE76
:04087C000040000632
:04087D0007FFFFFE74
:04087E0004FFFF6E06
:04087F00014001062D
:04088000007EDF66B1
:04088100004000062D
:0408820004FFFF6E02
:04088300014000062A
:040884000000000070
:04088500000000006F
:04088600000000006E
:0408870007FFFFFE6A
:040888000040000626
:04088900010000006A
:04088A0004FFFF6EFA
:04088B0007FFFFFE66
:04088C000040000622
:04088D0007FFFFFE64
:04088E00004001061F
:04088F000000000065
:04089000000000085C
:0408910007FFFFFE60
:0408920004FFFF6EF2
:04089300014000061A
:0408940004FFFF6EF0
:0408950007FFFFFE5C
:040896000040000618
:0408970007FFFFFE5A
:0408980000FEFF6EF1
:040899000140000614
:04089A0004FFFF6EEA
:04089B0007FFFFFE56
:04089C0004FFFF6EE8
:04089D0007FFFFFE54
:04089E00004001060F
:04089F000000000055
:0408A000007EDF6E89
:0408A10007FFFFFE50
:0408A200004000060C
:0408A30007FFFFFE4E
:0408A400004000060A
:0408A500000000004F
:0408A60004FFFF6EDE
:0408A7000140010605
:0408A80000FEFF6EE1
:0408A9000140000604
:0408AA00000000004A
:0408AB0007FFFFFE46
:0408AC000040000602
:0408AD000000000047
:0408AE000000000046
:0408AF0007FFFFFE42
:0408B000007EFF6E59
:0408B10007FFFFFE40
:0408B20004FFFF6ED2
:0408B30001400006FA
:0408B40004FFFF6ED0
:0408B50007FFFFFE3C
:0408B60000400006F8
:0408B700000000003D
:0408B800000000003C
:0408B900010000003A
:0408BA00000000003A
:0408BB000000000039
:0408BC0004FFFF6EC8
:0408BD0007FFFFFE34
:0408BE0000400006F0
:0408BF000000000035
:0408C0000000000034
:0408C10007FFFFFE30
:0408C20000400006EC
:0408C30007FFFFFE2E
:0408C40000400006EA
:0408C50007FFFFFE2C
:0408C60000400006E8
:0408C70007FFFFFE2A
:0408C80000400006E6
:0408C900010000002A
:0408CA00000000002A
:0408CB0007FFFFFE26
:0408CC0000400006E2
:0408CD000000000027
:0408CE0004FFFF6EB6
:0408CF0007FFFFFE22
:0408D00000400006DE
:0408D10007FFFFFE20
:0408D20000400006DC
:0408D30007FFFFFE1E
:0408D40004FFFF6EB0
:0408D50001400006D8
:0408D600000000001E
:0408D700000000001D
:0408D80000FEFF6EB1
:0408D90007FFFFFE18
:0408DA0004FFFF6EAA
:0408DB0001400006D2
:0408DC0004FFFF6EA8
:0408DD0001400006D0
:0408DE000000000016
:0408DF0007FFFFFE12
:0408E0000040000EC6
:0408E1000100000012
:0408E20004FFFF6EA2
:0408E30007FFFFFE0E
:0408E40000400006CA
:0408E500000000000F
:0408E60004FFFF6E9E
:0408E70001400106C5
:0408E800008000008C
:0408E900010000000A
:0408EA00000000000A
:0408EB000000000009
:0408EC0004FFFF6E98
:0408ED0001400006C0
:0408EE000000000006
:0408EF0007FFFFFE02
:0408F000007EFF6621
:0408F10001400006BC
:0408F20004FFFF6E92
:0408F30007FFFFFEFE
:0408F40000400006BA
:0408F50007FFFFFEFC
:0408F60000400006B8
:0408F70000000000FD
:0408F80000FEFF6E91
:0408F90000400006B5
:0408FA0004FFFF6E8A
:0408FB0001400006B2
:0408FC0000000000F8
:0408FD0007FFFFFEF4
:0408FE0000400006B0
:0408FF0007FFFFFEF2
:0409000000400000B3
:0409010001000000F1
:0409020004FFFF6E81
:0409030007FFFFFEED
:0409040004FFFF6E7F
:0409050001400006A7
:0409060000000000ED
:0409070007FFFFFEE9
:04090800007EFF6E00
:0409090000400006A4
:04090A0000000000E9
:04090B0000000000E8
:04090C0000000000E7
:04090D0007FFFFFEE3
:04090E0004FFFF6E75
:04090F00014001069C
:0409100000000000E3
:0409110007FFFFFEDF
:0409120004FFFF6E71
:0409130007FFFFFEDD
:0409140004FFFF6E6F
:0409150007FFFFFEDB
:0409160004FFFF6E6D
:0409170007FFFFFED9
:0409180000FEFF6E70
:040919000140000693
:04091A0000000000D9
:04091B0007FFFFFED5
:04091C000040000691
:04091D0000000000D6
:04091E0000000000D5
:04091F0000000000D4
:04092000007EDF6E08
:04092100004000068C
:0409220004FFFF6E61
:040923000140000689
:0409240000000000CF
:0409250007FFFFFECB
:040926000040000687
:0409270000000000CC
:0409280000FEFF6E60
:0409290007FFFFFEC7
:04092A000040000683
:04092B0007FFFFFEC5
:04092C0004FFFF6E57
:04092D0007FFFFFEC3
:04092E0004FFFF6E55
:04092F0007FFFFFEC1
:04093000007EFF6ED8
:0409310007FFFFFEBF
:04093200004000067B
:0409330007FFFFFEBD
:0409340004FFFF6E4F
:040935000140000677
:0409360000000000BD
:0409370000000000BC
:0409380000FEFF6E50
:040939000140000673
:04093A0000000000B9
:04093B0007FFFFFEB5
:04093C000040000671
:04093D0000000000B6
:04093E0000000000B5
:04093F0000000000B4
:0409400000000008AB
:0409410001000000B1
:0409420004FFFF6E41
:0409430007FFFFFEAD
:040944000040000669
:0409450000000000AE
:0409460000000000AD
:0409470000000000AC
:04094800008000002B
:0409490007FFFFFEA7
:04094A0004FFFF6E39
:04094B000140000661
:04094C0004FFFF6E37
:04094D0007FFFFFEA3
:04094E0004FFFF6E35
:04094F00014001065C
:04095000007EFF66C0
:04095100004000065C
:0409520000000000A1
:0409530000000000A0
:04095400000000009F
:0409550007FFFFFE9B
:040956000040000657
:04095700000000009C
:0409580000FEFF6E30
:0409590006FFFFFE98
:04095A0004FFFF6E29
:04095B000140000651
:04095C000000000097
:04095D0007FFFFFE93
:04095E00004001064E
:04095F0007FFFFFE91
:04096000007EDF66D0
:0409610007FFFFFE8F
:0409620004FFFF6E21
:0409630007FFFFFE8D
:040964000040000649
:04096500000000008E
:04096600000000008D
:0409670007FFFFFE89
:040968000040000645
:0409690007FFFFFE87
:04096A0004FFFF6E19
:04096B000140000641
:04096C0004FFFF6E17
:04096D0007FFFFFE83
:04096E0004FFFF6E15
:04096F00014001063C
:04097000000000087B
:0409710007FFFFFE7F
:04097200004000063B
:0409730007FFFFFE7D
:040974000040000639
:04097500000000007E
:04097600000000007D
:04097700000000007C
:0409780000FEFF6E10
:040979000040000634
:04097A0004FFFF6E09
:04097B000140000631
:04097C000000000077
:04097D0007FFFFFE73
:04097E00004001062E
:04097F000000000074
:04098000007EDF66B0
:0409810007FFFFFE6F
:0409820004FFFF6E01
:0409830007FFFFFE6D
:040984000040000629
:04098500000000006E
:0409860004FFFF6EFD
:040987000140010624
:04098800000000006B
:0409890007FFFFFE67
:04098A0004FFFF6EF9
:04098B0007FFFFFE65
:04098C000040000621
:04098D0007FFFFFE63
:04098E00004000061F
:04098F000000000064
:04099000000000085B
:040991000000000062
:0409920004FFFF6EF1
:040993000140000619
:04099400000000005F
:0409950007FFFFFE5B
:0409960004FFFF6EED
:040997000140010614
:04099800000000005B
:040999000100000059
:04099A000000000059
:04099B0007FFFFFE55
:04099C0004FFFF6EE7
:04099D00014000060F
:04099E000000000055
:04099F000000000054
:0409A000007EDF6E88
:0409A100004000060C
:0409A20004FFFF6EE1
:0409A3000140000609
:0409A400000000004F
:0409A50007FFFFFE4B
:0409A60004FFFF6EDD
:0409A70007FFFFFE49
:0409A80000C0000685
:0409A90007FFFFFE47
:0409AA0004FFFF6ED9
:0409AB0007FFFFFE45
:0409AC000040000601
:0409AD0007FFFFFE43
:0409AE0000400006FF
:0409AF000000000044
:0409B000007EFF6E58
:0409B10007FFFFFE3F
:0409B20004FFFF6ED1
:0409B30007FFFFFE3D
:0409B40004FFFF6ECF
:0409B50001400006F7
:0409B600000000003D
:0409B70007FFFFFE39
:0409B80000FEFF6ED0
:0409B90007FFFFFE37
:0409BA0004FFFF6EC9
:0409BB0007FFFFFE35
:0409BC0004FFFF6EC7
:0409BD0001400006EF
:0409BE000000000035
:0409BF000000000034
:0409C000007EDF6E68
:0409C10007FFFFFE2F
:0409C20000400006EB
:0409C30007FFFFFE2D
:0409C40000400006E9
:0409C50007FFFFFE2B
:0409C60000400006E7
:0409C700000000002C
:0409C80000800000AB
:0409C90007FFFFFE27
:0409CA0000400006E3
:0409CB0007FFFFFE25
:0409CC0000400006E1
:0409CD000000000026
:0409CE000000000025
:0409CF000000000024
:0409D000007EFF6E38
:0409D10000400006DC
:0409D2000000000021
:0409D3000000000020
:0409D400000000001F
:0409D50007FFFFFE1B
:0409D60004FFFF6EAD
:0409D70007FFFFFE19
:0409D80000400006D5
:0409D9000100000019
:0409DA000000000019
:0409DB0007FFFFFE15
:0409DC0004FFFF6EA7
:0409DD0007FFFFFE13
:0409DE0004FFFF6EA5
:0409DF0001400106CC
:0409E000007EDF6650
:0409E10001400006CB
:0409E2000000000011
:0409E3000000000010
:0409E40004FFFF6E9F
:0409E50007FFFFFE0B
:0409E60000400006C7
:0409E700000000000C
:0409E800007EFF6E20
:0409E90007FFFFFE07
:0409EA0004FFFF6E99
:0409EB0007FFFFFE05
:0409EC0000400006C1
:0409ED0007FFFFFE03
:0409EE0000400006BF
:0409EF000000000004
:0409F00000000008FB
:0409F1000000000002
:0409F2000000000001
:0409F3000000000000
:0409F40000000000FF
:0409F50000000000FE
:0409F60004FFFF6E8D
:0409F70007FFFFFEF9
:0409F80000FEFF6E90
:0409F90006FFFFFEF8
:0409FA0000400006B3
:0409FB0000000000F8
:0409FC0000000000F7
:0409FD0000000000F6
:0409FE0004FFFF6E85
:0409FF0007FFFFFEF1
:040A00000076DB2081
:040A010000400006AB
:040A020000000000F0
:040A030000000000EF
:040A040000000000EE
:040A050000000000ED
:040A060004FFFF6E7C
:040A070001400106A3
:040A0800007EFF6EFF
:040A090007FFFFFEE6
:040A0A0000400006A2
:040A0B0007FFFFFEE4
:040A0C0004FFFF6E76
:040A0D0007FFFFFEE2
:040A0E00004001069D
:040A0F0007FFFFFEE0
:040A100000C0000E14
:040A110001000000E0
:040A120004FFFF6E70
:040A13000140000698
:040A140004FFFF6E6E
:040A150007FFFFFEDA
:040A160004FFFF6E6C
:040A17000140010693
:040A180000FEFF6E6F
:040A190007FFFFFED6
:040A1A0004FFFF6E68
:040A1B0007FFFFFED4
:040A1C000040000690
:040A1D0000000000D5
:040A1E0004FFFF6E64
:040A1F00014001068B
:040A2000007EDF6E07
:040A210007FFFFFECE
:040A2200004000068A
:040A230007FFFFFECC
:040A24000040000688
:040A250007FFFFFECA
:040A260004FFFF6E5C
:040A270007FFFFFEC8
:040A280000FEFF6E5F
:040A29000040000683
:040A2A0004FFFF6E58
:040A2B000140000680
:040A2C0000000000C6
:040A2D0000000000C5
:040A2E0000000000C4
:040A2F0007FFFFFEC0
:040A3000007EFF6ED7
:040A3100004000067B
:040A320004FFFF6E50
:040A33000140000678
:040A340000000000BE
:040A350000000000BD
:040A360004FFFF6E4C
:040A370007FFFFFEB8
:040A38000040000674
:040A390001000000B8
:040A3A0000000000B8
:040A3B0007FFFFFEB4
:040A3C0004FFFF6E46
:040A3D00014000066E
:040A3E0000000000B4
:040A3F0007FFFFFEB0
:040A4000004000066C
:040A410007FFFFFEAE
:040A4200004000066A
:040A430007FFFFFEAC
:040A44000040000668
:040A450000000000AD
:040A460004FFFF6E3C
:040A470007FFFFFEA8
:040A4800007EFF6EBF
:040A490006FFFFFEA7
:040A4A000040000662
:040A4B0000000000A7
:040A4C0000000000A6
:040A4D0000000000A5
:040A4E0004FFFF6E34
:040A4F0007FFFFFEA0
:040A5000004000065C
:040A510007FFFFFE9E
:040A5200004000065A
:040A5300000000009F
:040A540004FFFF6E2E
:040A550007FFFFFE9A
:040A56000040000656
:040A5700000000009B
:040A580000FEFF6E2F
:040A590006FFFFFE97
:040A5A0004FFFF6E28
:040A5B000140000650
:040A5C000000000096
:040A5D000000000095
:040A5E000000000094
:040A5F0007FFFFFE90
:040A60000040000E44
:040A610007FFFFFE8E
:040A6200004000064A
:040A630007FFFFFE8C
:040A640004FFFF6E1E
:040A65000140000646
:040A660004FFFF6E1C
:040A67000140010643
:040A680000FEFF6E1F
:040A690007FFFFFE86
:040A6A000040000642
:040A6B0007FFFFFE84
:040A6C000040000640
:040A6D000000000085
:040A6E0004FFFF6E14
:040A6F00014001063B
:040A7000007EFF669F
:040A710007FFFFFE7E
:040A720004FFFF6E10
:040A730007FFFFFE7C
:040A74000040000638
:040A7500000000007D
:040A760004FFFF6E0C
:040A770007FFFFFE78
:040A78000040000634
:040A79000100000078
:040A7A0004FFFF6E08
:040A7B000140000630
:040A7C0004FFFF6E06
:040A7D00014000062E
:040A7E0004FFFF6E04
:040A7F00014001062B
:040A8000000000086A
:040A810007FFFFFE6E
:040A8200004000062A
:040A830007FFFFFE6C
:040A84000040000628
:040A8500000000006D
:040A860004FFFF6EFC
:040A870007FFFFFE68
:040A880000FEFF6EFF
:040A890007FFFFFE66
:040A8A0004FFFF6EF8
:040A8B000140000620
:040A8C0004FFFF6EF6
:040A8D0007FFFFFE62
:040A8E00004000061E
:040A8F000000000063
:040A9000007EFF667F
:040A910007FFFFFE5E
:040A920004FFFF6EF0
:040A93000140000618
:040A940004FFFF6EEE
:040A95000140000616
:040A960004FFFF6EEC
:040A97000140010613
:040A9800000000005A
:040A99000100000058
:040A9A000000000058
:040A9B0007FFFFFE54
:040A9C000040000610
:040A9D0007FFFFFE52
:040A9E00004000060E
:040A9F0007FFFFFE50
:040AA000007EDF6E87
:040AA100004000060B
:040AA20004FFFF6EE0
:040AA3000140000608
:040AA400000000004E
:040AA50007FFFFFE4A
:040AA6000040000606
:040AA700000000004B
:040AA80000FEFF6EDF
:040AA90007FFFFFE46
:040AAA0004FFFF6ED8
:040AAB0007FFFFFE44
:040AAC0004FFFF6ED6
:040AAD0001400006FE
:040AAE000000000044
:040AAF0007FFFFFE40
:040AB000007EFF6E57
:040AB10007FFFFFE3E
:040AB20000400006FA
:040AB30007FFFFFE3C
:040AB40004FFFF6ECE
:040AB50001400006F6
:040AB600000000003C
:040AB70007FFFFFE38
:040AB80000FEFF6ECF
:040AB90007FFFFFE36
:040ABA0004FFFF6EC8
:040ABB0007FFFFFE34
:040ABC0004FFFF6EC6
:040ABD0001400006EE
:040ABE0004FFFF6EC4
:040ABF0001400106EB
:040AC0000000000032
:040AC1000000000031
:040AC20004FFFF6EC0
:040AC30001400006E8
:040AC400000000002E
:040AC50007FFFFFE2A
:040AC60004FFFF6EBC
:040AC70001400106E3
:040AC800007EFF6E3F
:040AC90000400006E3
:040ACA000000000028
:040ACB000000000027
:040ACC000000000026
:040ACD000000000025
:040ACE000000000024
:040ACF0007FFFFFE20
:040AD00000400006DC
:040AD1000100000020
:040AD2000000000020
:040AD300000000001F
:040AD40004FFFF6EAE
:040AD50001400006D6
:040AD600000000001C
:040AD700000000001B
:040AD80000FEFF6EAF
:040AD90007FFFFFE16
:040ADA0000400006D2
:040ADB000000000017
:040ADC0004FFFF6EA6
:040ADD0001400006CE
:040ADE000000000014
:040ADF0007FFFFFE10
:040AE00000400006CC
:040AE1000100000010
:040AE2000000000010
:040AE30007FFFFFE0C
:040AE40000400006C8
:040AE500000000000D
:040AE600000000000C
:040AE70007FFFFFE08
:040AE800007EFF6E1F
:040AE90007FFFFFE06
:040AEA0000400006C2
:040AEB000000000007
:040AEC0004FFFF6E96
:040AED0001400006BE
:040AEE0004FFFF6E94
:040AEF0001400106BB
:040AF0000000000002
:040AF10007FFFFFEFE
:040AF20004FFFF6E90
:040AF30007FFFFFEFC
:040AF40000400006B8
:040AF50007FFFFFEFA
:040AF60000400006B6
:040AF70000000000FB
:040AF80000000000FA
:040AF90006FFFFFEF7
:040AFA0000400006B2
:040AFB0000000000F7
:040AFC0000000000F6
:040AFD0000000000F5
:040AFE0000000000F4
:040AFF0007FFFFFEF0
:040B000000400000B1
:040B010000000000F0
:040B020000000000EF
:040B030000000000EE
:040B040000000000ED
:040B050007FFFFFEE9
:040B060000400006A5
:040B070000000000EA
:040B0800007EFF6EFE
:040B090000400006A2
:040B0A0000000000E7
:040B0B0000000000E6
:040B0C0000000000E5
:040B0D0007FFFFFEE1
:040B0E0004FFFF6E73
:040B0F00014001069A
:040B100000000000E1
:040B110001000000DF
:040B120000000000DF
:040B130000000000DE
:040B140004FFFF6E6D
:040B15000140000695
:040B160000000000DB
:040B170007FFFFFED7
:040B18000040000693
:040B190007FFFFFED5
:040B1A000040000691
:040B1B0007FFFFFED3
:040B1C00004000068F
:040B1D0000000000D4
:040B1E0000000000D3
:040B1F0000000000D2
:040B2000007EDF660E
:040B2100004000068A
:040B220000000000CF
:040B230000000000CE
:040B240000000000CD
:040B250000000000CC
:040B260004FFFF6E5B
:040B27000140010682
:040B2800007EFF6EDE
:040B29000040000682
:040B2A0004FFFF6E57
:040B2B00014000067F
:040B2C0000000000C5
:040B2D0007FFFFFEC1
:040B2E0004FFFF6E53
:040B2F00014001067A
:040B300000000008B9
:040B310001000000BF
:040B320004FFFF6E4F
:040B33000140000677
:040B340004FFFF6E4D
:040B35000140000675
:040B360004FFFF6E4B
:040B370007FFFFFEB7
:040B380000FEFF6E4E
:040B39000040000672
:040B3A0000000000B7
:040B3B0000000000B6
:040B3C0000000000B5
:040B3D0007FFFFFEB1
:040B3E0004FFFF6E43
:040B3F0007FFFFFEAF
:040B4000007EDF6EE6
:040B410007FFFFFEAD
:040B420004FFFF6E3F
:040B43000140000667
:040B440004FFFF6E3D
:040B45000140000665
:040B460004FFFF6E3B
:040B47000140010662
:040B48000080000029
:040B490006FFFFFEA6
:040B4A000040000661
:040B4B0000000000A6
:040B4C0000000000A5
:040B4D0007FFFFFEA1
:040B4E00004000065D
:040B4F0000000000A2
:040B5000007EFF6EB6
:040B51000140000659
:040B520004FFFF6E2F
:040B530007FFFFFE9B
:040B540004FFFF6E2D
:040B55000140000655
:040B5600000000009B
:040B570007FFFFFE97
:040B58000040000653
:040B59000100000097
:040B5A000000000097
:040B5B0007FFFFFE93
:040B5C0004FFFF6E25
:040B5D00014000064D
:040B5E0004FFFF6E23
:040B5F00014001064A
:040B6000007EDF6EC6
:040B610007FFFFFE8D
:040B62000040000649
:040B630007FFFFFE8B
:040B640004FFFF6E1D
:040B650007FFFFFE89
:040B660004FFFF6E1B
:040B670007FFFFFE87
:040B680000C00006C3
:040B69000100000087
:040B6A000000000087
:040B6B0007FFFFFE83
:040B6C00004000063F
:040B6D000000000084
:040B6E0004FFFF6E13
:040B6F00014001063A
:040B7000007EFF6E96
:040B710006FFFFFE7E
:040B720004FFFF6E0F
:040B73000140000637
:040B7400000000007D
:040B750007FFFFFE79
:040B760004FFFF6E0B
:040B770007FFFFFE77
:040B780000FEFF6E0E
:040B79000040000632
:040B7A0004FFFF6E07
:040B7B00014000062F
:040B7C000000000075
:040B7D000000000074
:040B7E000000000073
:040B7F0007FFFFFE6F
:040B8000007EDF66AE
:040B810006FFFFFE6E
:040B820004FFFF6EFF
:040B83000140000627
:040B8400000000006D
:040B8500000000006C
:040B860004FFFF6EFB
:040B87000140010622
:040B8800007EFF6E7E
:040B89000140000621
:040B8A000000000067
:040B8B0007FFFFFE63
:040B8C0004FFFF6EF5
:040B8D00014000061D
:040B8E000000000063
:040B8F0007FFFFFE5F
:040B90000040000E13
:040B910007FFFFFE5D
:040B920004FFFF6EEF
:040B930007FFFFFE5B
:040B940004FFFF6EED
:040B950007FFFFFE59
:040B960004FFFF6EEB
:040B970007FFFFFE57
:040B980000FEFF6EEE
:040B990006FFFFFE56
:040B9A000040000611
:040B9B000000000056
:040B9C000000000055
:040B9D0007FFFFFE51
:040B9E0004FFFF6EE3
:040B9F00014001060A
:040BA000007EDF6E86
:040BA1000140000609
:040BA200000000004F
:040BA30007FFFFFE4B
:040BA4000040000607
:040BA50007FFFFFE49
:040BA60004FFFF6EDB
:040BA7000140010602
:040BA80000800000C9
:040BA9000100000047
:040BAA000000000047
:040BAB0007FFFFFE43
:040BAC0000400006FF
:040BAD0007FFFFFE41
:040BAE0004FFFF6ED3
:040BAF0007FFFFFE3F
:040BB000007EFF6E56
:040BB10000400006FA
:040BB20004FFFF6ECF
:040BB30001400006F7
:040BB400000000003D
:040BB500000000003C
:040BB60004FFFF6ECB
:040BB70007FFFFFE37
:040BB80000400006F3
:040BB9000100000037
:040BBA0004FFFF6EC7
:040BBB0007FFFFFE33
:040BBC0000400006EF
:040BBD0007FFFFFE31
:040BBE0004FFFF6EC3
:040BBF0007FFFFFE2F
:040BC00000400006EB
:040BC10006FFFFFE2E
:040BC20000400006E9
:040BC300000000002E
:040BC400000000002D
:040BC50007FFFFFE29
:040BC60000400006E5
:040BC700000000002A
:040BC8000000000029
:040BC90007FFFFFE25
:040BCA0000400006E1
:040BCB0007FFFFFE23
:040BCC0004FFFF6EB5
:040BCD0007FFFFFE21
:040BCE0000400106DC
:040BCF0007FFFFFE1F
:040BD00000400006DB
:040BD10007FFFFFE1D
:040BD20004FFFF6EAF
:040BD30001400006D7
:040BD40004FFFF6EAD
:040BD50007FFFFFE19
:040BD60000400006D5
:040BD700000000001A
:040BD80000FEFF6EAE
:040BD90000400006D2
:040BDA0004FFFF6EA7
:040BDB0001400006CF
:040BDC000000000015
:040BDD000000000014
:040BDE000000000013
:040BDF0007FFFFFE0F
:040BE00000400006CB
:040BE100010000000F
:040BE200000000000F
:040BE300000000000E
:040BE40004FFFF6E9D
:040BE50001400006C5
:040BE600000000000B
:040BE700000000000A
:040BE8000000000009
:040BE9000100000007
:040BEA000000000007
:040BEB0007FFFFFE03
:040BEC0004FFFF6E95
:040BED0001400006BD
:040BEE0004FFFF6E93
:040BEF0007FFFFFEFF
:040BF00000400006BB
:040BF10007FFFFFEFD
:040BF20004FFFF6E8F
:040BF30007FFFFFEFB
:040BF40000400006B7
:040BF50000000000FC
:040BF60004FFFF6E8B
:040BF70001400106B2
:040BF80000FEFF6E8E
:040BF90001400006B1
:040BFA0000000000F7
:040BFB0007FFFFFEF3
:040BFC0000400006AF
:040BFD0000000000F4
:040BFE0004FFFF6E83
:040BFF0007FFFFFEEF
:040C00000076DA2878
:040C010000400006A9
:040C020004FFFF6E7E
:040C030001400006A6
:040C040000000000EC
:040C050000000000EB
:040C060004FFFF6E7A
:040C070007FFFFFEE6
:040C080000C0000622
:040C090007FFFFFEE4
:040C0A0000400006A0
:040C0B0007FFFFFEE2
:040C0C00004000069E
:040C0D0000000000E3
:040C0E0004FFFF6E72
:040C0F0007FFFFFEDE
:040C1000007EFF66FD
:040C110007FFFFFEDC
:040C12000040000698
:040C130007FFFFFEDA
:040C140004FFFF6E6C
:040C15000140000694
:040C160000000000DA
:040C170007FFFFFED6
:040C18000040000692
:040C190001000000D6
:040C1A0004FFFF6E66
:040C1B0007FFFFFED2
:040C1C00004000068E
:040C1D0007FFFFFED0
:040C1E0004FFFF6E62
:040C1F0007FFFFFECE
:040C20000040000E82
:040C210007FFFFFECC
:040C220004FFFF6E5E
:040C230007FFFFFECA
:040C24000040000686
:040C250007FFFFFEC8
:040C26000040000684
:040C270000000000C9
:040C280000FEFF6E5D
:040C29000140000680
:040C2A0004FFFF6E56
:040C2B0007FFFFFEC2
:040C2C0004FFFF6E54
:040C2D00014000067C
:040C2E0004FFFF6E52
:040C2F0007FFFFFEBE
:040C3000007EFF66DD
:040C310007FFFFFEBC
:040C320004FFFF6E4E
:040C330007FFFFFEBA
:040C340004FFFF6E4C
:040C35000140000674
:040C360000000000BA
:040C370007FFFFFEB6
:040C380000FEFF6E4D
:040C39000040000671
:040C3A0004FFFF6E46
:040C3B00014000066E
:040C3C0000000000B4
:040C3D0000000000B3
:040C3E0004FFFF6E42
:040C3F0007FFFFFEAE
:040C4000004000066A
:040C410001000000AE
:040C420004FFFF6E3E
:040C430007FFFFFEAA
:040C44000040000666
:040C450000000000AB
:040C460000000000AA
:040C470000000000A9
:040C4800007EFF6EBD
:040C490007FFFFFEA4
:040C4A0004FFFF6E36
:040C4B00014000065E
:040C4C0004FFFF6E34
:040C4D0007FFFFFEA0
:040C4E0004FFFF6E32
:040C4F000140010659
:040C500000000000A0
:040C5100010000009E
:040C5200000000009E
:040C5300000000009D
:040C540004FFFF6E2C
:040C550007FFFFFE98
:040C560004FFFF6E2A
:040C57000140010651
:040C58000000000098
:040C59000100000096
:040C5A000000000096
:040C5B0007FFFFFE92
:040C5C00004000064E
:040C5D000000000093
:040C5E0004FFFF6E22
:040C5F00014000064A
:040C6000007EDF6EC5
:040C61000140000648
:040C6200000000008E
:040C630007FFFFFE8A
:040C640004FFFF6E1C
:040C650007FFFFFE88
:040C660004FFFF6E1A
:040C670007FFFFFE86
:040C680000C00006C2
:040C690007FFFFFE84
:040C6A000040000640
:040C6B0007FFFFFE82
:040C6C00004000063E
:040C6D0007FFFFFE80
:040C6E0004FFFF6E12
:040C6F0007FFFFFE7E
:040C7000007EFF6E95
:040C71000140000638
:040C7200000000007E
:040C730007FFFFFE7A
:040C74000040000636
:040C750007FFFFFE78
:040C76000040000634
:040C77000000000079
:040C780000FEFF6E0D
:040C790006FFFFFE75
:040C7A000040000630
:040C7B000000000075
:040C7C000000000074
:040C7D000000000073
:040C7E000000000072
:040C7F000000000071
