:1B000000000000000000000000000000000000000000000000000000000000E5
:1B000100000000000000000000000000000000000000000000000000000000E4
:1B000200000000000000000000000000000000000000000000000000000000E3
:1B000300000000000000000000000000000000000000000000000000000000E2
:1B3FFF00000000000000000000000000000000000000000000000000000007A0
:00000001FF